:0400000002008E323A
:03000B0002015B94
:0100130032BA
:03001B000202C816
:200020000000E2FBEAF2802C0000E0FBEAF08024E6B50202EBF62200E2B50202EBF22200C6
:20004000E0B50202EBF02230F6E0A88220F5D3EAC6F582228B822230F6E6A88220F5D980D6
:01006000CFD0
:2000E700751000751100751800750800750900750A00750B00750C00750D00750E00750F5D
:040107000002006191
:0300610002010B8E
:20010B00120A53120A66D2AF12036A7403B508F8C2AFE5A0541F44A0F5A0D286E5A0541F85
:20012B004480F5A075800000007FE37E037D16DFFEDEFCDDFAE5A0541F4480F5A07580FF1D
:20014B0000007FE37E037D16DFFEDEFCDDFA80B8C020C0E0C0F0C082C083C007C006C00551
:20016B00C004C003C002C001C000C0D075D000E50870550510749C2510500C751000E511F2
:20018B00B40100E433F511E511601D752A0A752B00752C40752D03752E0090001275F04056
:2001AB001207F112020D803B752A0A752B00752C40752D03752E0090001575F0401207F188
:2001CB00850982120219801B752A0A752B00752C40752D03752E0090001275F0401207F179
:2001EB0012020DD0D0D000D001D002D003D004D005D006D007D083D082D0F0D0E0D0200290
:20020B00006485128285131A85141B02072EAF82D2A6D2A7EF6015AE1775F00AEE84AEF0EF
:20022B008E2A758200C0071205C9D007BF01028013AE1775F00AEE84F52A758201C007129B
:20024B0005C9D007752A17758202C0071205C9D007BF02028015AE1675F00AEE84AEF08E98
:20026B002A758203C0071205C9D007BF03028013AE1675F00AEE84F52A758204C0071205DD
:20028B00C9D007752A17758205C0071205C9D007BF04028015AE1575F00AEE84AEF08E2A2F
:2002AB00758206C0071205C9D007BF050122AF1575F00AEF84F52A7582070205C9C020C09E
:2002CB00E0C0F0C082C083C007C006C005C004C003C002C001C000C0D075D000051874EC90
:2002EB0025185039751800E508601B75240B75250075264075270C75280075294090000A62
:20030B0075F04012095A7402B50812E50DB50A0DE50EB50B08E50FB50C03750803D0D0D052
:20032B0000D001D002D003D004D005D006D007D083D082D0F0D0E0D020020064E4F508F5A5
:20034B0009F50AF50BF50CE5A0541F44A0F5A0C286E5A0541F4480F5A07580FFD2AF2220C8
:20036B00B34F7F917E6CDFFEDEFC20B344E50870117405B509057509008033E50904F509DD
:20038B00802C7403B50824E4F508F509F50AF50BF50CE5A0541F44A0F5A0C286E5A0541FBE
:2003AB004480F5A07580FFD2AF800375080030B3FD30B2030205237F917E6CDFFEDEFC3094
:2003CB00B203020523E50860030204F9E509FF24FA5003020520EF2F2F9003E8730203FA25
:2003EB0002042402044502046F0204900204C9AF0C75F00AEF8475F00AA4FFAD0C7E008D30
:20040B00828E83A3752A0A8E2BC007120AA5AD82D007ED2FF50C020520AF0C75F00AEF84CA
:20042B00AFF0AE0C75F00AEE840475F00684E5F075F00AA42FF50C020520AF0B75F00AEF2D
:20044B008475F00AA4FFAD0B7E008D828E83A3752A0A8E2BC007120AA5AD82D007ED2FF501
:20046B000B020520AF0B75F00AEF84AFF0AE0B75F00AEE840475F00684E5F075F00AA42F60
:20048B00F50B020520AF0A75F00AEF8475F00AA4FFAD0A7E008D828E83A3752A0A8E2BC063
:2004AB0007120AA5AD82D007ED2FF50AC394184064AF0A75F00AEF84AFF08F0A8057AF0AD2
:2004CB0075F00AEF84AFF0AE0A75F00AEE840475F00384E5F075F00AA42FF50AC394184042
:2004EB0034AF0A75F00AEF84AFF08F0A80277403B50822E4F508F509F50AF50BF50CE5A089
:20050B00541F44A0F5A0C286E5A0541F4480F5A07580FFD2AF30B2FD20B14A7F917E6CDF03
:20052B00FEDEFC20B13FE5087011850A82850B22850C231208ED75080180277403B5082261
:20054B00E4F508F509F50AF50BF50CE5A0541F44A0F5A0C286E5A0541F4480F5A07580FFB3
:20056B00D2AF30B1FD20B0557F917E6CDFFEDEFC20B04AE508701C752A0AF52B752C407589
:20058B002D03752E0090000D75F0401207F175080280277403B50822E4F508F509F50AF5E2
:1E05AB000BF50CE5A0541F44A0F5A0C286E5A0541F4480F5A07580FFD2AF30B0FD22A8
:2005C900AF82D2A57580FFC2A58FF005F07F80E4FE3392D28008A2D2EE13FEEF13FFD5F062
:2005E900F58F80D2A5E52A900ADF93F5800000007FBE7E0BDFFEDEFC7580FF22AF82D2A6AB
:20060900D2A78F0675F00AEE84AEF08E2A758200C0071205C9D0078F0675F00AEE8475F03C
:200629000A84AEF08E2A758201C0071205C9D00775F064EF84F52A7582020205C9AE82AF54
:2006490083D2A6D2A7752A0A758202C007C0061205C9D006D007752A0A752B008E828F83F6
:20066900C007C006120A06AC82D006D0078C2A758200C007C0061205C9D006D007752A0A77
:20068900752B008E828F83C007C0061207C8752A0A752B00120A06AC82D006D0078C2A75B0
:2006A9008201C007C0061205C9D006D007752A64752B008E828F831207C8AE828E2A75820F
:2006C900020205C9AF82D2A6D2A7AE198E0575F00AED84ADF08D2A758200C007C0061205F4
:2006E900C9D006D00775F00AEE84F52A758201C0071205C9D007752A17758202C007120578
:20070900C9D0078F0675F00AEE84AEF08E2A758203C0071205C9D00775F00AEF84F52A7576
:2007290082040205C9AF82D2A6D2A7AE1B8E0575F00AED84ADF08D2A758200C007C0061212
:2007490005C9D006D00775F00AEE84F52A758201C0071205C9D007752A17758202C0071217
:2007690005C9D007AE1A8E0575F00AED84ADF08D2A758203C007C0061205C9D006D00775B3
:20078900F00AEE84F52A758204C0071205C9D007752A17758205C0071205C9D0078F067512
:1F07A900F00AEE84AEF08E2A758206C0071205C9D00775F00AEF84F52A7582070205C925
:190ADF00C0F9A4B0999282F880907F8883C6A1868E89C7C8C18CA3BFFF71
:2007C8007A10E4FBFCE58225E0F582E58333F583EB33FBEC33FCEB952AF5F0EC952B400601
:0907E800FCABF0438201DADD22D2
:0600BD00E478FFF6D8FD17
:2007F100AD82AE83AFF08D2F8E308F31852A32852B33852C34A82DA92E8803890418B8FF73
:200811000119EB4C60258532828533838534F0120A89FCA38582328583338D828E838FF07D
:15083100EC1209EBA3AD82AE8380CE852F828530838531F02239
:20084600AF82008F061FEE70F922AF827E00BE0800502DC2977D01008D041DEC70F9EF5425
:200866000124FF92A3EFC313FF7D01008D041DEC70F9D2977D01008D041DEC70F90E80CE8E
:20088600227F007E00BE0800501EC2977D01008D041DEC70F9EFA2A313FFD2977D01008D6B
:2008A600041DEC70F90E80DD8F8222AF82C29300C29700D293008F8212085085218212081D
:2008C60050C29322AF82C29300C29700D293008F82120850120887C29300C29700D29700D4
:2008E600C2A300D2A30022AF8275210075828EC0071208B1D0078F0675F00AEE84C454F0C3
:20090600FE75F00AEF84E5F02EF5217582841208B1AF228F0675F00AEE84C454F0FE75F0E0
:200926000AEF84E5F02EF5217582821208B1AF238F0675F00AEE84C454F0FE75F00AEF84A7
:20094600E5F02EF5217582801208B175218075828E0208B1AD82AE83AFF0758285C007C0DE
:2009660006C0051208CAAC82758283C0041208CAAB82758281C0031208CAAA82D003D00453
:20098600D005D006D007ED4E6016ECC4540F75F00AA4F9740F5C298D828E838FF01209EB52
:2009A600E5244525601CAD24AE25AF26EBC4540F75F00AA4FC740F5B2C8D828E838FF012ED
:2009C60009EBE5274528601CAD27AE28AF29EAC4540F75F00AA4FC740F5A2C8D828E838FCE
:0509E600F00209EB2204
:20009B007900E94400601B7A00900AF8780175A000E493F2A308B8000205A0D9F4DAF27509
:0200BB00A0FFA4
:20006400C000A88118C0D0B6001B18B620004015B647005010C0E0E65407B406005004E6A5
:0A00840054F8F6D0E0D0D0D00032DE
:1B09EB0020F71130F6138883A88220F509F6A8837583002280FEF280F5F0220B
:200A0600E52A452B60467A01E52A25E0F52AE52B334012F52BE582952AE583952B40030AAD
:200A260080E6C3E52B13F52BE52A13F52AC3E582952AF5F0E583952B4005F58385F082C396
:0D0A4600E52B13F52BE52A13F52ADAE12242
:2000C3007800E84400600A790175A000E4F309D8FC7800E84400600C7900900001E4F0A33B
:0400E300D8FCD9FA72
:200A5300538E7F5389F0758A00758CDCC28DD28CD2A922538EBF53890F758B00758DDCC206
:160A73008FD28ED2AB22438E0475D7CD75D6D4438E1043AF0422D9
:0D008E00758134120ADBE582600302006117
:1C0A890020F71430F6148883A88220F507E6A88375830022E280F7E49322E0227C
:200AA500C2D5E58330E70DD2D5E4C39582F582E49583F583E52B30E70BE4C3952AF52AE423
:160AC500952BF52B120A0630D50BE4C39582F582E49583F583223E
:040ADB0075820022FE
:00000001FF
