:040000000200D632F2
:03000B0002016F80
:0100130032BA
:03001B0002037F5E
:0100230032AA
:01002B0032A2
:01003300329A
:01003B003292
:01004300328A
:01004B003282
:01005300327A
:01005B003272
:0300630002046B29
:200068000000E2FBEAF2802C0000E0FBEAF08024E6B50202EBF62200E2B50202EBF222007E
:20008800E0B50202EBF02230F6E0A88220F5D3EAC6F582228B822230F6E6A88220F5D9808E
:0100A800CF88
:20012F00751100751200751300751400751500750800750900750A00750B04750CFF751005
:0D014F0000750D00750E00750F000200A96F
:0300A90002015CF5
:20015C0012084412085712086AD2AF1204DA750F0080F8C021C0E0C0F0C082C083C007C086
:20017C0006C005C004C003C002C001C000C0D075D000E50D7003020344051174B02511508B
:20019C000C751100E512B40100E433F512D2A6D2A77519177582041205DB751917758207C1
:2001BC001205DBE5127003020283E50E700EE50804F5197582061205DB020360850B19755E
:2001DC001A009000641207DAAE82AF837519E8751A03C007C0061205B2AC82D006D0078CDB
:2001FC0019758203C007C0061205DBD006D007751964751A008E828F83C007C0061205B2AB
:20021C00AC82D006D00775F00AEC84ACF08C19758202C007C0061205DBD006D00775190A0A
:20023C00751A008E828F83C007C0061205B275190A751A001207F7AC82D006D0078C19756F
:20025C008201C007C0061205DBD006D00775190A751A008E828F831207F7AE828E197582AC
:20027C00001205DB020360850B19751A009000641207DAAE82AF83E50804F519758206C0CE
:20029C0007C0061205DBD006D0077519E8751A038E828F83C007C0061205B2AC82D006D082
:2002BC00078C19758203C007C0061205DBD006D007751964751A008E828F83C007C006120E
:2002DC0005B2AC82D006D00775F00AEC84ACF08C19758202C007C0061205DBD006D00775B6
:2002FC00190A751A008E828F83C007C0061205B275190A751A001207F7AC82D006D0078C1A
:20031C0019758201C007C0061205DBD006D00775190A751A008E828F831207F7AE828E1954
:20033C007582001205DB801CE50F6018D2A6D2A77519177582071205DBE50A04F519758232
:20035C00061205DBD0D0D000D001D002D003D004D005D006D007D083D082D0F0D0E0D02147
:20037C000200ACC021C0E0C0F0C082C083C007C006C005C004C003C002C001C000C0D075DC
:20039C00D000051374CE25135013751300758203120930AF8275F040EF84FF8F0AE5107069
:2003BC000302044C0514850B19751A0090000A1207DAAE82AF83AC147D00C3EC9EED648031
:2003DC008FF063F08095F04067751400E508FF24FC403CEF2F9003F5738006800480198036
:2003FC0017AE097F008E828F83A37519088F1A1209B1AE828E09801CAE097F008E828F8309
:20041C00A37519048F1A1209B1AE828E098005750CFF801CE50875F008A424EBFE740935F1
:20043C00F0FFE5092EF582E43FF583E493FF8F0CD0D0D000D001D002D003D004D005D0060D
:20045C00D007D083D082D0F0D0E0D0210200ACC021C0E0C0F0C082C083C007C006C005C02D
:20047C0004C003C002C001C000C0D075D000AE157F008E828F83A37519048F1A1209B1AEC5
:20049C00828E15C2A5C2A6D2A7C3E50A951592004004AF0C80027FFF8F80C2A77580FFD0AA
:2004BC00D0D000D001D002D003D004D005D006D007D083D082D0F0D0E0D0210200AC20B22E
:2004DC00257F917E6CDFFEDEFC20B21AE50D6008750D00751001800BE510B401009201E430
:2004FC0033F51030B2FD20B3277F917E6CDFFEDEFC20B31CE50D700A750D01F510750CFFBB
:20051C00800BE50EB401009201E433F50E30B3FD20B0457F917E6CDFFEDEFC20B03AE50D3D
:20053C006030E50E601AAE087F008E828F83A37519048F1A1209B1AE828E087509008015C8
:20055C00740CB50B047F048005AE0B0E8E078F0B8003750F0130B0FD20B13A7F917E6CDF74
:20057C00FEDEFC20B12FE50D6028E50E6014E50870047F038005AE081E8E078F08750900C0
:16059C0080107404B50B047F0C8005AE0B1E8E078F0B30B1FD2267
:2009EB00FEFDFBF7EFDFBF7F7FBFDFEFF7FBFDFE7EBDDBE700000000E7DBBD7E0000000000
:2005B2007A10E4FBFCE58225E0F582E58333F583EB33FBEC33FCEB9519F5F0EC951A40063B
:0905D200FCABF0438201DADD22EA
:06010500E478FFF6D8FDCE
:2000E3007900E94400601B7A00900A24780175A000E493F2A308B8000205A0D9F4DAF27595
:02010300A0FF5B
:2000AC00C000A88118C0D0B6001B18B668004015B68F005010C0E0E65407B406005004E6CD
:0A00CC0054F8F6D0E0D0D0D0003296
:2005DB00AF82D2A57580FFC2A58FF005F07F80E4FE3392D28008A2D2EE13FEEF13FFD5F050
:2005FB00F58F80D2A5E519900A0B93F5800000007FBE7E0BDFFEDEFC7580FF22AF82D2A67E
:20061B00D2A78F0675F00AEE84AEF08E19758200C0071205DBD0078F0675F00AEE8475F029
:20063B000A84AEF08E19758201C0071205DBD00775F064EF84F5197582020205DBAE82AF40
:20065B0083D2A6D2A775190A758202C007C0061205DBD006D00775190A751A008E828F8305
:20067B00C007C0061207F7AC82D006D0078C19758200C007C0061205DBD006D00775190A87
:20069B00751A008E828F83C007C0061205B275190A751A001207F7AC82D006D0078C19750C
:2006BB008201C007C0061205DBD006D007751964751A008E828F831205B2AE828E19758236
:2006DB00020205DBAF82D2A6D2A7AE168E0575F00AED84ADF08D19758200C007C0061205E4
:2006FB00DBD006D00775F00AEE84F519758201C0071205DBD007751917758202C007120564
:20071B00DBD0078F0675F00AEE84AEF08E19758203C0071205DBD00775F00AEF84F5197562
:20073B0082040205DBAF82D2A6D2A7AE188E0575F00AED84ADF08D19758200C007C0061202
:20075B0005DBD006D00775F00AEE84F519758201C0071205DBD007751917758202C0071203
:20077B0005DBD007AE178E0575F00AED84ADF08D19758203C007C0061205DBD006D0077591
:20079B00F00AEE84F519758204C0071205DBD007751917758205C0071205DBD0078F0675FE
:1F07BB00F00AEE84AEF08E19758206C0071205DBD00775F00AEF84F5197582070205DB11
:190A0B00C0F9A4B0999282F880907F8883C6A1868E89C7C8C18CA3BFFF45
:1D07DA00E5828519F0A4C582C0F0851AF0A4D0F025F0C5838519F0A42583F58322AE
:2007F700E519451A60467A01E51925E0F519E51A334012F51AE5829519E583951A40030A47
:2008170080E6C3E51A13F51AE51913F519C3E5829519F5F0E583951A4005F58385F082C30D
:0D083700E51A13F51AE51913F519DAE12297
:20010B007800E84400600A790175A000E4F309D8FC7800E84400600C7900900001E4F0A3F2
:04012B00D8FCD9FA29
:20084400538E7F5389F0758A00758CDCC28DD28CD2A922538EBF53890F758B00758DDCC217
:160864008FD28ED2AB22438E0475D7CD75D6D4438E1043AF0422EA
:20087A00AF82C2AF7E00BE0800502FC2A07D05008D041DEC70F9EF30E704D2A18002C2A1B0
:20089A007D05008D041DEC70F9D2A0EF2FFF7D05008D041DEC70F90E80CCD2AFC2A022D274
:2008BA00A07F05008F061FEE70F9A2A1E433FFC2A07E05008E051EED70F98F82227F00C236
:2008DA00AF7E00BE0800501ED2A07D05008D041DEC70F9EFA2A13FFFC2A07D05008D041DA4
:2008FA00EC70F90E80DDD2AF8F8222AF82C2A0EF24FF92A17F05008F061FEE70F9D2A07F12
:20091A0005008F061FEE70F9C2A0D2A17F05008F061FEE70F922AF82D2A1D2A07E05008E00
:20093A00051EED70F9C2A17E05008E051EED70F9C2A0758290C00712087A1208B9D00774D5
:20095A00404FF58212087A1208B9D2A1D2A07F05008F061FEE70F9C2A17F05008F061FEE13
:20097A0070F9C2A075829112087A1208B91208D7AF82758201C007120905D007C2A1D2A0F6
:17099A007E05008E051EED70F9D2A17E05008E051EED70F98F82228C
:0D00D6007581211209E7E58260030200A98F
:2009B100C2D5E58330E70DD2D5E4C39582F582E49583F583E51A30E70BE4C39519F519E44B
:1609D100951AF51A1207F730D50BE4C39582F582E49583F5832267
:0409E70075820022F3
:00000001FF
