:0400000002008E323A
:03000B0002011AD5
:0100130032BA
:03001B00020226B8
:200020000000E2FBEAF2802C0000E0FBEAF08024E6B50202EBF62200E2B50202EBF22200C6
:20004000E0B50202EBF02230F6E0A88220F5D3EAC6F582228B822230F6E6A88220F5D980D6
:01006000CFD0
:1B00E700750800750900750A00750B00750C0075170075180075190002006179
:0300610002010297
:20010200C2A5C2A6D2A77580FFC2A71205DD1205F0D2AF12025D80FBC021C0E0C0F0C0825D
:20012200C083C007C006C005C004C003C002C001C000C0D075D000AF17BF0002800ABF01B8
:2001420002802BBF02728059850A1A7582001201D9E5196004AF088002AF098F1A75820362
:200162001201D985191E758207120368804AE50C04F51A7582051201D9AE0B7F00AC0C7D37
:2001820000EEC39CF582EF9DF583751E0A8F1F1206AAE582240DF9871A7582001201D980F3
:2001A20017E51875F00AA4F51A7582001201D9751E10758207120368D0D0D000D001D002F3
:2001C200D003D004D005D006D007D083D082D0F0D0E0D021020064AF82D2A6D2A7AE1A8E10
:2001E2000575F00AED84ADF08D1E8F82C007C006120368D006D007EF04F5828E0575F00A9C
:20020200ED8475F00A84ADF08D1EC007C006120368D006D00774022FF58275F064EE84F52D
:200222001E020368C007C0D075D000AF17BF01028005BF0218800BC2A5C2A6D2A775807F68
:200242008014C2A5C2A6D2A77580BF8009C2A5C2A6D2A77580FFD0D0D0073220B3707F914B
:200262007E6CDFFEDEFC20B365AF0A8F09851882120613E582F50A2509F508AE0B7F008EB1
:20028200828F83A3751E0A8F1F1206AAE582F50B240DF9AF0AA7077F00BF0A00502DC2AFEA
:2002A200C2A5C2A6D2A77580FED2AF7E257DD8DEFEDDFCC2AFC2A5C2A6D2A77580FFD2AFA5
:2002C2007E257DD8DEFEDDFC0F80CE30B3FD20B21B7F917E6CDFFEDEFC20B2107401B51771
:2002E20005751700800375170130B2FD20B11B7F917E6CDFFEDEFC20B1107402B517057542
:200302001700800375170230B1FD20B0587F917E6CDFFEDEFC20B04DAF17BF0002800ABF0F
:2003220001028012BF023B8024E519B401009200E433F519802CAE0C7F008E828F83A375FD
:200342001E0A8F1F1206AAAE828E0C8015AE187F008E828F83A3751E0A8F1F1206AAAE825D
:060362008E1830B0FD22F0
:0600BD00E478FFF6D8FD17
:20009B007900E94400601B7A009006FD780175A000E493F2A308B8000205A0D9F4DAF27508
:0200BB00A0FFA4
:20006400C000A88118C0D0B6001B18B620004015B647005010C0E0E65407B406005004E6A5
:0A00840054F8F6D0E0D0D0D00032DE
:20036800AF82D2A57580FFC2A58FF005F07F80E4FE3392D28008A2D2EE13FEEF13FFD5F0C5
:20038800F58F80D2A5E51E9006E493F5800000007FBE7E0BDFFEDEFC7580FF22AF82D2A619
:2003A800D2A78F0675F00AEE84AEF08E1E758200C007120368D0078F0675F00AEE8475F00F
:2003C8000A84AEF08E1E758201C007120368D00775F064EF84F51E758202020368AE82AF96
:2003E80083D2A6D2A7751E0A758202C007C006120368D006D007751E0A751F008E828F83E1
:20040800C007C006120567AC82D006D0078C1E758200C007C006120368D006D007751E0AF9
:20042800751F008E828F83C007C0061205B4751E0A751F00120567AC82D006D0078C1E75FD
:200448008201C007C006120368D006D007751E64751F008E828F831205B4AE828E1E75820F
:2004680002020368AF82D2A6D2A7AE1B8E0575F00AED84ADF08D1E758200C007C0061203C6
:2004880068D006D00775F00AEE84F51E758201C007120368D007751E17758202C0071203B9
:2004A80068D0078F0675F00AEE84AEF08E1E758203C007120368D00775F00AEF84F51E75B6
:2004C8008204020368AF82D2A6D2A7AE1D8E0575F00AED84ADF08D1E758200C007C00612E3
:2004E8000368D006D00775F00AEE84F51E758201C007120368D007751E17758202C0071259
:200508000368D007AE1C8E0575F00AED84ADF08D1E758203C007C006120368D006D00775E6
:20052800F00AEE84F51E758204C007120368D007751E17758205C007120368D0078F067553
:1F054800F00AEE84AEF08E1E758206C007120368D00775F00AEF84F51E75820702036866
:1906E400C0F9A4B0999282F880907F8883C6A1868E89C7C8C18CA3BFFF70
:20056700E51E451F60467A01E51E25E0F51EE51F334012F51FE582951EE583951F40030AB1
:2005870080E6C3E51F13F51FE51E13F51EC3E582951EF5F0E583951F4005F58385F082C382
:0D05A700E51F13F51FE51E13F51EDAE12216
:2000C3007800E84400600A790175A000E4F309D8FC7800E84400600C7900900001E4F0A33B
:0400E300D8FCD9FA72
:2005B4007A10E4FBFCE58225E0F582E58333F583EB33FBEC33FCEB951EF5F0EC951F40062F
:0905D400FCABF0438201DADD22E8
:2005DD00538E7F5389F0758A00758CDCC28DD28CD2A922538EBF53890F758B00758DDCC281
:1605FD008FD28ED2AB22438E0475D7CD75D6D4438E1043AF042254
:20061300AF82C2AF7E00BE0A005013D29000007D21DDFEC29000007D21DDFE0E80E875E902
:200633000075F900D2DE7E00C3EE9F500E0000007D4F7C07DDFEDCFC0E80EDC2D875DA10E7
:2006530020D806E5F924CF50F7C2DE75DA00D2AF10D8028021AFFA7E00ACEA7D00EC420608
:1A067300ED42078E1E8F1F90001112068D751EE8751F030205B47582FF22B2
:1D068D00E582851EF0A4C582C0F0851FF0A4D0F025F0C583851EF0A42583F58322ED
:0D008E007581211206E0E582600302006129
:2006AA00C2D5E58330E70DD2D5E4C39582F582E49583F583E51F30E70BE4C3951EF51EE446
:1606CA00951FF51F12056730D50BE4C39582F582E49583F58322F9
:0406E00075820022FD
:00000001FF
