:040000000200D632F2
:03000B0002043DAF
:0100130032BA
:03001B0002019946
:0100230032AA
:01002B0032A2
:01003300329A
:01003B003292
:01004300328A
:01004B003282
:01005300327A
:01005B003272
:030063000204CACA
:200068000000E2FBEAF2802C0000E0FBEAF08024E6B50202EBF62200E2B50202EBF222007E
:20008800E0B50202EBF02230F6E0A88220F5D3EAC6F582228B822230F6E6A88220F5D9808E
:0100A800CF88
:20012F00E4F536F537E4F538F539F53AF53BF53C752200752300752432752500E4F526F51E
:1E014F0027F528F529F52AF52BF52CF52DF52EF52FF530F531F532F533F5340200A9F9
:0300A90002016DE4
:20016D00C2A5C2A6D2A77580FF12041C120C4C120C5FD2AF1206A7120611C3E5269524E449
:20018D0033B401009200E433F52580E8C021C0E0C0F0C082C083C007C006C005C004C003B0
:2001AD00C002C001C000C0D075D000AF23BF0002800FBF01030202A6BF0203020398020325
:2001CD00B0AF22BF0002800DBF01028023BF020280780203B0852682120993750B0A758212
:2001ED0001120957750B147582071209570203B0750BE8750C03E4F50DF50E852C82852D0C
:20020D0083852EF0E52F1208BFAC82750BE8750C03E4F50DF50E852C82852D83852EF0E5CB
:20022D002FC00412076BAB82D0048C35758200C0031203CFD0038B357582031203CF750BE9
:20024D00107582071209570203B0852882852983750BE8750C03120742AE828528828529A8
:20026D0083750BE8750C03C006120B56AD82D0068E35758203C0051203CFD0058D357582D0
:20028D00001203CF750B0A758202120957750B0D7582071209570203B0AF22BF0002800EA6
:2002AD00BF0102802DBF02030203410203B0852782120993750B0A758201120957750B11A2
:2002CD00758207120957750B147582061209570203B0750BE8750C03E4F50DF50E853082DD
:2002ED008531838532F0E5331208BFAC82750BE8750C03E4F50DF50E8530828531838532F6
:20030D00F0E533C00412076BAB82D0048C35758200C0031203CFD0038B357582031203CFAF
:20032D00750B11758207120957750B10758206120957806F852A82852B83750BE8750C0371
:20034D00120742AE82852A82852B83750BE8750C03C006120B56AD82D0068E35758203C0FA
:20036D00051203CFD0058D357582001203CF750B0A758202120957750B117582071209571F
:20038D00750B0D7582061209578018852482120993750B0A758201120957750B157582075C
:2003AD00120957D0D0D000D001D002D003D004D005D006D007D083D082D0F0D0E0D021027A
:2003CD0000ACAF82D2A6D2A7AE358E0575F00AED84ADF08D0B8F82C007C006120957D006D1
:2003ED00D007EF04F5828E0575F00AED8475F00A84ADF08D0BC007C006120957D006D00768
:20040D0074022FF58275F064EE84F50B02095775D90075E90075F900D2DE538E7F5389F020
:20042D00438906758AEC758CECC28DD2A9D28C22C021C0E0C0F0C082C083C007C006C005B3
:20044D00C004C003C002C001C000C0D075D000AEE97F00ADF97C00EE4204EF4205ECC3950A
:20046D0036FEED9537FF8C368D37EE4F60268E0B8F0C750D00750E0090400075F01974013E
:20048D001208BFAC82AD83AEF0FF8C2C8D2D8E2E8F2F800A74FFF52CF52DF52EF52FD0D068
:2004AD00D000D001D002D003D004D005D006D007D083D082D0F0D0E0D0210200ACC021C03E
:2004CD00E0C0F0C082C083C007C006C005C004C003C002C001C000C0D075D0000538E538AF
:2004ED0024EB506E753800758203120D8B120ECFAC82AD83AEF0FFE4C0E0C0E0747FC0E030
:20050D007443C0E08C828D838EF0EF120E0CAC82AD83AEF0FFE58124FCF581C004C005C080
:20052D0006C00790000075F04874421207EEAC82AD83AEF0FFE58124FCF5818C828D838E44
:20054D00F0EF120C6F750B64750C00120B56AE828E260539E4B53902053AAE39AF3AC3EE94
:20056D009464EF9400400C7403B53407E4F539F53AF534AE39AF3AC3EE94EEEF9402400D01
:20058D007401B53408E4F539F53A753402E5256024053C7438253C500C753C00C2A5C2A644
:2005AD00D2A75380077464B53C14C2A5C2A6D2A74380F88009C2A5C2A6D2A74380F8C2A508
:2005CD00C2A6D2A7D280D281D282AF22BF0002800ABF01028009BF020C8008C2808006C2EE
:2005ED00818002C282D0D0D000D001D002D003D004D005D006D007D083D082D0F0D0E0D086
:20060D00210200ACAF34BF00028006BF0202801822C2AF120C0F7582CC120BB575824412D7
:20062D000BB5753401D2AF22C2AF120C0F7582CC120BB57582BE120BB5120BE4AF82C007ED
:20064D00120BE4AE82D0078E05E4FEFCEF4206EC42058E828D83753403D2AF120C7AAC8297
:20066D00AD83AEF0FFC004C005C006C00790000075F0C874401207EEAC82AD83AEF0FFE532
:20068D008124FCF5818C828D838EF0EF120C6FE5828583F0F52885F0292220B3237F917E5E
:2006AD006CDFFEDEFC20B318AE227F008E828F83A3750B038F0C120EDAAE828E2230B3FD33
:2006CD0020B22A7F917E6CDFFEDEFC20B21FAF268F27AE28AF298E2A8F2BAC2CAD2DAE2E36
:2006ED00AF2F8C308D318E328F3330B2FD20B1237F917E6CDFFEDEFC20B118AE237F008EC8
:20070D00828F83A3750B038F0C120EDAAE828E2330B1FD20B01E7F917E6CDFFEDEFC20B04F
:15072D0013AF2474022FF524E52424CD500375240230B0FD222C
:200742007A10E4FBFCE58225E0F582E58333F583EB33FBEC33FCEB950BF5F0EC950C4006C5
:09076200FCABF0438201DADD2258
:20076B00F9E50B450C450D450E60777800C308E50E20E73BE50B25E0F50BE50C33F50CE541
:20078B000D33F50DE50E33F50EE582950BE583950CE5F0950DE9950E50D4C3E50E13F50EE0
:2007AB00E50D13F50DE50C13F50CE50B13F50BE582950BFCE583950CFDE5F0950DFEE99523
:2007CB000E4007F98EF08D838C82C3E50E13F50EE50D13F50DE50C13F50CE50B13F50BD871
:0307EB00CEE92232
:2007EE00120891BC0003020CA7EF60FA30D502B2D1E583B4FF03020CBDE582B4FF03020CE5
:20080E00BD258340072482400B020CA72483145003020CBDF582EA8DF0A4A8F0EA8EF0A479
:20082E0028F8E435F0F9EB8DF0A428E935F0F9E433CA8FF0A429F9EA35F0FAEBF88EF0A419
:20084E0029F9EA35F0FAE433FBEC8DF0A429F9EA35F0FAE43BFBE88FF0A42AFAEB35F0FBC1
:20086E00E433CCFD8EF0A42AFAEB35F0FBE43CFCED8FF0A42BFBEC35F0FC20E70312092491
:03088E00020C86D3
:20089100AA82AB83A2F73392D1F5826002D2F7ACF0E58124F9F8E6FD08E6FE0886F008E6CA
:0E08B100A2F73392D5F5836002D2F7AFF022A2
:2008BF00FB7A20E4FCFDFEFFE5822582F582E58333F583E5F033F5F0EB33FB4017DAE98072
:2008DF0042E5822582F582E58333F583E5F033F5F0EB33FBEC33FCED33FDEE33FEEF33FFA1
:2008FF00EC950BED950CEE950DEF950E4013EC950BFCED950CFDEE950DFEEF950EFF438253
:05091F0001DABEEB222D
:06010500E478FFF6D8FDCE
:200924007804EC7011E58224F8500AF582E4C9CACBFCD8EF22EC7820058220E713D58201D2
:1309440022C3E933F9EA33FAEB33FBEC33FCD8EA158222E0
:2000E3007900E94400601B7A00900FBC780175A000E493F2A308B8000205A0D9F4DAF275F8
:02010300A0FF5B
:2000AC00C000A88118C0D0B6001B18B668004015B68F005010C0E0E65407B406005004E6CD
:0A00CC0054F8F6D0E0D0D0D0003296
:20095700AF82D2A57580FFC2A58FF005F07F80E4FE3392D28008A2D2EE13FEEF13FFD5F0D0
:20097700F58F80D2A5E50B900FA393F5800000007FBE7E0BDFFEDEFC7580FF22AF82D2A66F
:20099700D2A78F0675F00AEE84AEF08E0B758200C007120957D0078F0675F00AEE8475F038
:2009B7000A84AEF08E0B758201C007120957D00775F064EF84F50B758202020957AE82AFDD
:2009D70083D2A6D2A7750B0A758202C007C006120957D006D007750B0A750C008E828F8330
:2009F700C007C006120B56AC82D006D0078C0B758200C007C006120957D006D007750B0A41
:200A1700750C008E828F83C007C006120742750B0A750C00120B56AC82D006D0078C0B75CF
:200A37008201C007C006120957D006D007750B64750C008E828F83120742AE828E0B7582CE
:200A570002020957AF82D2A6D2A7AE088E0575F00AED84ADF08D0B758200C007C0061209FC
:200A770057D006D00775F00AEE84F50B758201C007120957D007750B17758202C007120900
:200A970057D0078F0675F00AEE84AEF08E0B758203C007120957D00775F00AEF84F50B7503
:200AB7008204020957AF82D2A6D2A7AE0A8E0575F00AED84ADF08D0B758200C007C006121F
:200AD7000957D006D00775F00AEE84F50B758201C007120957D007750B17758202C00712A0
:200AF7000957D007AE098E0575F00AED84ADF08D0B758203C007C006120957D006D007752E
:200B1700F00AEE84F50B758204C007120957D007750B17758205C007120957D0078F06759A
:1F0B3700F00AEE84AEF08E0B758206C007120957D00775F00AEF84F50B758207020957AD
:190FA300C0F9A4B0999282F880907F8883C6A1868E89C7C8C18CA3BFFFA8
:200B5600E50B450C60467A01E50B25E0F50BE50C334012F50CE582950BE583950C40030A54
:200B760080E6C3E50C13F50CE50B13F50BC3E582950BF5F0E583950C4005F58385F082C3FF
:0D0B9600E50C13F50CE50B13F50BDAE1226D
:200BA300AE82AF838E048F051EBEFF011FEC4D70F322AF827E00BE08005020C294EF540172
:200BC30024FF9294900032C007C006120BA3D006D007D294EFC313FF0E80DB900032020BAB
:200BE300A37F007E00BE0800501FC294EFC313FFD294309403430780900032C007C00612AB
:200C03000BA3D006D0070E80DC8F8222D294900078120BA3C294900320120BA3D2949000EC
:160C230064120BA3A294E433FF900032C007120BA3D0078F8222F8
:20010B007800E84400600A790175A000E4F309D8FC7800E84400600C7900900001E4F0A3F2
:04012B00D8FCD9FA29
:200C3900538E7F5389F0758A00758CDCC28DD28CD2A922538EBF53890F758B00758DDCC21E
:160C59008FD28ED2AB22438E0475D7CD75D6D4438E1043AF0422F1
:0B0C6F007F8E120F25F58385F0822296
:0C0C7A00E4AC83AB82FAF9748E020F190F
:200C8600B98003EA13B34010EA2401FAE43BFBE43CFC50047C800582BC000EBB000BBA00B2
:200CA60008E4F5F0F583F58222A2D1E582138CF092F78B838A8222E4F583F58275F080F472
:0F0CC600A2D11322E4F583F58275F0C0747F226A
:200CD500AF82C2AF7E00BE0800502FC2A07D05008D041DEC70F9EF30E704D2A18002C2A151
:200CF5007D05008D041DEC70F9D2A0EF2FFF7D05008D041DEC70F90E80CCD2AFC2A022D215
:200D1500A07F05008F061FEE70F9A2A1E433FFC2A07E05008E051EED70F98F82227F00C2D6
:200D3500AF7E00BE0800501ED2A07D05008D041DEC70F9EFA2A13FFFC2A07D05008D041D44
:200D5500EC70F90E80DDD2AF8F8222AF82C2A0EF24FF92A17F05008F061FEE70F9D2A07FB2
:200D750005008F061FEE70F9C2A0D2A17F05008F061FEE70F922AF82D2A1D2A07E05008EA1
:200D9500051EED70F9C2A17E05008E051EED70F9C2A0758290C007120CD5120D14D00774B7
:200DB500404FF582120CD5120D14D2A1D2A07F05008F061FEE70F9C2A17F05008F061FEEF5
:200DD50070F9C2A0758291120CD5120D14120D32AF82758201C007120D60D007C2A1D2A019
:170DF5007E05008E051EED70F9D2A17E05008E051EED70F98F82222D
:200E0C0012089130D502B2D1BF0009BC0003020CCA020CBDBC0003020CA7E583B4FF0BE5E8
:200E2C0082B4FF03020CCA020CA7E582B4FF03020CBDC395835007247F400B020CA7248080
:200E4C00145003020CBDF582C3ED9AEE9BEF9C40111582C3EA33F9EB33FAEC33FBE433FC79
:200E6C008005E4CCCBCAF9C08275F019C3E99DEA9EEB9FEC9400D5F002802D400EE99DF9C7
:200E8C00EA9EFAEB9FFBEC9400FCC3B3E833F8E58233F582E58333F583C3E933F9EA33FA27
:200EAC00EB33FBEC33FC80C4B3E4F938FAE43582FBE43583FCD082500405827C8012092456
:030ECC00020C9E77
:0D00D60075813C120F4AE58260030200A90B
:0B0ECF00E4AC82FBFAF97486020F19F4
:200EDA00C2D5E58330E70DD2D5E4C39582F582E49583F583E50C30E70BE4C3950BF50BE447
:160EFA00950CF50C120B5630D50BE4C39582F582E49583F58322F2
:130F1000FCABF0AA83A982749EC2D1F582120924020C86F0
:200F23007F9E120F9130D103020CA7C3EF9582500974FFF5F0F583F582227900120F4E892A
:070F4300828A838BF0EC228F
:040F4A00758200228A
:200F4E006040F82582500274FFF582E824F8501ECCCBCAF9E4CC24F85014CBCAF9E4CB24AB
:200F6E00F8500BCAF9E4CA24F8500379002224086010F8C3EC13FCEB13FBEA13FAE913F95E
:030F8E00D8F12275
:120F9100AA82AB83A2F73392D1F5826002D2F7ACF02265
:00000001FF
