:040000000200543274
:03000B000201559A
:200010000000E2FBEAF2802C0000E0FBEAF08024E6B50202EBF62200E2B50202EBF22200D6
:20003000E0B50202EBF02230F6E0A88220F5D3EAC6F582228B822230F6E6A88220F5D980E6
:01005000CFE0
:0E00AD00E4F508F509F50AF50BF50C02005113
:030051000200BBEF
:2000BB00120147D2AF20B3FDE4F50DF50EF50FF510F511F512F513F514E50D250DF8E50E5B
:2000DB0033F9E50F33E51033E51133E51233E51333E51433E8243FFEE93404FF74012EFCD8
:2000FB00E43FFD8C828D83E49360BA8E178F18751980751A02751B0090001575F04012033C
:20011B00AF1201F2050DE4B50D20050EB50E1B050FB50F160510B510110511B5110C05126F
:20013B00B512070513B513910514808D538E7F5389F0438901C28DD2A922C0E0C007C0062D
:20015B00C0D075D000E50C600B850A8A850B8C750C00800BAE08AF098E8A8F8C750C01E50A
:20017B00A0541F44A0F5A0E50C24FF9286E5A0541F4480F5A0D0D0D006D007D0E032AF82FB
:20019B00E5176003BFFF05C28CC28622C28CEF75F028A424B5FE740435F0FFE5172517252C
:2001BB00E02EFEE43FFF8E828F83E493FCA3E493FD8C088D098E828F83A3A3E493FEA3E4BC
:2001DB0093FF8E0A8F0B750C0185088AAE08AF098F8CD286D28C22AF15BFFF3AC28CC286F4
:2001FB007E007F00AC16E40354F8CCC403CC6CCC54F8CC6CFD8E028F03C3EA9CEB9D501582
:20021B0000007D9F7C077B02DDFEDCFCDBFA0EBE00D20F80CF227F01BF09005067AE15EF50
:20023B006003BEFF06C28CC2868048C28CEE75F028A424B5FD740435F0FEEF2F25E02DFDF4
:20025B00E43EFE8D828E83E493FBA3E493FC8B088C098D828E83A3A3E493FDA3E493FE8D14
:20027B000A8E0B750C0185088AAD08AE098E8CD286D28C00007E9F7D077C02DEFEDDFCDC3B
:20029B00FA0F8094AF15BFFF06C28CC2868047C28CEF75F028A424B5FE740435F0FF7424C8
:2002BB002EF582E43FF583E493FCA3E493FD8C088D0974262EF582E43FF583E493FEA3E459
:2002DB0093FF8E0A8F0B750C0185088AAE08AF098F8CD286D28C7F00AD167E001DBDFF01CD
:2002FB001EEEC40354F8CDC403CD6DCD54F8CD6DFE8F037C00C3EB9DEC64808EF063F0802B
:20031B0095F0501100007E9F7D077C02DEFEDDFCDCFA0F80C37F08EF6067AE15EF6003BED0
:20033B00FF06C28CC2868048C28CEE75F028A424B5FD740435F0FEEF2F25E02DFDE43EFEF4
:20035B008D828E83E493FBA3E493FC8B088C098D828E83A3A3E493FDA3E493FE8D0A8E0B90
:20037B00750C0185088AAD08AE098E8CD286D28C00007E9F7D077C02DEFEDDFCDCFA1F8044
:14039B0096C28CC28600007F9F7E077D02DFFEDEFCDDFA2250
:20043F000908080807080B080C040B040902080207040804090208020704080409080704C7
:20045F000604070809080A04090408040704080409020802070406040708090408040708B4
:20047F000B080C040B0409020802070408040902080207040804090805040604070809088F
:20049F000A04090408040704080409020802070406040710FF00C7FF5CED8FFF94ED42FF60
:2004BF00E1EDC1FE62EE09FE1AEFF8FC2BF049FBDAF163F9C0F37BF5A8F792F692F6CDFF18
:2004DF0057EF9BFF89EF56FFCEEFE3FE41F040FEE4F04DFDD7F1CCFB58F3A0FB04F59DF624
:2004FF0087F899F799F7D3FF24F1A6FF51F169FF8EF103FFF4F171FE86F299FD5EF340FC98
:20051F00B7F402FD35F69DF75AF983F883F8D7FFC4F2B0FFEBF279FF22F31EFF7DF39DFE3D
:20053F00FEF3DDFDBEF4A9FCF2F58EFD4DF782F819FA55F955F9DAFF8FF3B4FFB5F381FF65
:20055F00E8F32AFF3FF4B0FEB9F4F7FD72F5D4FC95F6DAFDCFF7EDF876FAB4F9B4F9DFFF0A
:20057F00E8F4BDFF0AF58FFF38F542FF85F5D3FEF4F52EFE99F62DFD9AF766FEB1F8B4F965
:20059F0023FB65FA65FAE4FF13F6C4FF33F69BFF5CF656FFA1F6F4FE03F761FE96F77CFD5F
:2005BF007BF8CEFE79F966FAABFB02FB02FBE6FF9DF6C7FFBCF6A1FFE2F661FF22F705FF86
:2005DF007EF778FE0BF89FFDE4F807FFDDF9B5FAEBFB49FB49FBE8FFAAF7CDFFC5F7ABFFE3
:2005FF00E7F772FF20F821FF71F8A4FEEEF8E1FDAFF961FF8FFA4AFB5DFCCDFBCDFBEBFFDD
:20061F008EF8D3FFA6F8B5FFC4F882FFF7F83AFF3FF9CBFEAEF91CFE5DFAACFF33FBD2FBED
:20063F00CCFC43FC43FCEDFF5EF9D8FF73F9BCFF8FF98FFFBCF94EFFFDF9EDFE62FA51FE70
:20065F00FEFAEEFFBDFB44FC23FDABFCABFCEEFFBDF9DAFFD1F9C0FFEBF996FF15FA58FF4C
:20067F0052FAFAFEB0FA66FE44FB0C00FCFB78FC4AFDDBFCDBFCEFFF6CFADEFF7DFAC7FFF0
:20069F0094FAA2FFB8FA69FFF1FA15FF44FB90FEC6FB450069FCDAFC96FD33FD33FDF1FF02
:2006BF0008FBE2FF17FBCDFF2CFBACFF4DFB79FF80FB2EFFC8FBC2FE3EFC8400CEFC31FDE6
:2006DF00DEFD81FD81FDF1FF4FFBE3FF5DFBD0FF70FBB1FF8FFB82FFBFFB3AFF02FCD9FEF3
:2006FF0071FCAD0005FD59FD03FEA5FDA5FDF3FFD2FBE6FFDFFBD5FFF0FBB9FF0CFC8FFF99
:20071F0036FC4FFF71FCF9FED5FCF80058FDA2FD3AFEE7FDE7FDF4FF47FCE9FF52FCDAFFD4
:20073F0061FCC1FF7AFC9CFF9FFC63FFD4FC16FF2DFD3B01A1FDE3FD6BFE21FE21FEF5FF0B
:20075F00ADFCECFFB6FCDEFFC4FCC8FFDAFCA7FFFBFC74FF2AFD30FF7AFD7601E1FD1DFEAD
:20077F0095FE55FE55FEF6FFDEFCEDFFE8FCDFFFF6FCCBFF0AFDACFF29FD7CFF59FD3CFF04
:20079F0099FD920103FE38FEADFE6DFE6DFEF7FF35FDEFFF3DFDE3FF49FDD1FF5BFDB5FF05
:2007BF0077FD8BFFDAFD52FFDDFDC4013BFE6AFEE7FE99FE99FEF8FF82FDF0FF8AFDE6FFD0
:1E07DF0094FDD6FFA4FDBDFFBDFD97FFE3FD63FF16FEF0016FFE96FE05FFC0FEC0FE21
:06008300E478FFF6D8FD51
:2003AF00AD82AE83AFF08D1C8E1D8F1E85171F851820851921A81AA91B8803890418B8FF8A
:2003CF000119EB4C6025851F828520838521F012041FFCA385821F8583208D828E838FF093
:1503EF00EC120404A3AD82AE8380CE851C82851D83851EF022A5
:200061007900E94400601B7A009007FD780175A000E493F2A308B8000205A0D9F4DAF27541
:02008100A0FFDE
:1B04040020F71130F6138883A88220F509F6A8837583002280FEF280F5F022F7
:200089007800E84400600A790175A000E4F309D8FC7800E84400600C7900900001E4F0A375
:0400A900D8FCD9FAAC
:0D00540075812112043BE58260030200511A
:1C041F0020F71430F6148883A88220F507E6A88375830022E280F7E49322E022EC
:04043B0075820022A4
:00000001FF
